{
  "_format": "hh-sol-artifact-1",
  "contractName": "Web3text",
  "sourceName": "contracts/Web3text.sol",
  "abi": [
    {
      "inputs": [
        {
          "internalType": "address",
          "name": "signer",
          "type": "address"
        }
      ],
      "stateMutability": "nonpayable",
      "type": "constructor"
    },
    {
      "inputs": [],
      "name": "ApprovalCallerNotOwnerNorApproved",
      "type": "error"
    },
    {
      "inputs": [],
      "name": "ApprovalQueryForNonexistentToken",
      "type": "error"
    },
    {
      "inputs": [],
      "name": "ApprovalToCurrentOwner",
      "type": "error"
    },
    {
      "inputs": [],
      "name": "ApproveToCaller",
      "type": "error"
    },
    {
      "inputs": [],
      "name": "BalanceQueryForZeroAddress",
      "type": "error"
    },
    {
      "inputs": [],
      "name": "MintToZeroAddress",
      "type": "error"
    },
    {
      "inputs": [],
      "name": "MintZeroQuantity",
      "type": "error"
    },
    {
      "inputs": [],
      "name": "MintedQueryForZeroAddress",
      "type": "error"
    },
    {
      "inputs": [],
      "name": "OwnerQueryForNonexistentToken",
      "type": "error"
    },
    {
      "inputs": [],
      "name": "TransferCallerNotOwnerNorApproved",
      "type": "error"
    },
    {
      "inputs": [],
      "name": "TransferFromIncorrectOwner",
      "type": "error"
    },
    {
      "inputs": [],
      "name": "TransferToNonERC721ReceiverImplementer",
      "type": "error"
    },
    {
      "inputs": [],
      "name": "TransferToZeroAddress",
      "type": "error"
    },
    {
      "anonymous": false,
      "inputs": [
        {
          "indexed": true,
          "internalType": "address",
          "name": "owner",
          "type": "address"
        },
        {
          "indexed": true,
          "internalType": "address",
          "name": "approved",
          "type": "address"
        },
        {
          "indexed": true,
          "internalType": "uint256",
          "name": "tokenId",
          "type": "uint256"
        }
      ],
      "name": "Approval",
      "type": "event"
    },
    {
      "anonymous": false,
      "inputs": [
        {
          "indexed": true,
          "internalType": "address",
          "name": "owner",
          "type": "address"
        },
        {
          "indexed": true,
          "internalType": "address",
          "name": "operator",
          "type": "address"
        },
        {
          "indexed": false,
          "internalType": "bool",
          "name": "approved",
          "type": "bool"
        }
      ],
      "name": "ApprovalForAll",
      "type": "event"
    },
    {
      "anonymous": false,
      "inputs": [
        {
          "indexed": false,
          "internalType": "address",
          "name": "minter",
          "type": "address"
        },
        {
          "indexed": false,
          "internalType": "uint256",
          "name": "tokenId",
          "type": "uint256"
        }
      ],
      "name": "Minted",
      "type": "event"
    },
    {
      "anonymous": false,
      "inputs": [
        {
          "indexed": true,
          "internalType": "address",
          "name": "previousOwner",
          "type": "address"
        },
        {
          "indexed": true,
          "internalType": "address",
          "name": "newOwner",
          "type": "address"
        }
      ],
      "name": "OwnershipTransferred",
      "type": "event"
    },
    {
      "anonymous": false,
      "inputs": [
        {
          "indexed": false,
          "internalType": "uint256",
          "name": "price",
          "type": "uint256"
        }
      ],
      "name": "PriceChanged",
      "type": "event"
    },
    {
      "anonymous": false,
      "inputs": [
        {
          "indexed": false,
          "internalType": "address",
          "name": "signer",
          "type": "address"
        }
      ],
      "name": "SignerChanged",
      "type": "event"
    },
    {
      "anonymous": false,
      "inputs": [
        {
          "indexed": false,
          "internalType": "enum Web3text.Status",
          "name": "status",
          "type": "uint8"
        }
      ],
      "name": "StatusChanged",
      "type": "event"
    },
    {
      "anonymous": false,
      "inputs": [
        {
          "indexed": true,
          "internalType": "address",
          "name": "from",
          "type": "address"
        },
        {
          "indexed": true,
          "internalType": "address",
          "name": "to",
          "type": "address"
        },
        {
          "indexed": true,
          "internalType": "uint256",
          "name": "tokenId",
          "type": "uint256"
        }
      ],
      "name": "Transfer",
      "type": "event"
    },
    {
      "inputs": [
        {
          "internalType": "address",
          "name": "to",
          "type": "address"
        },
        {
          "internalType": "uint256",
          "name": "tokenId",
          "type": "uint256"
        }
      ],
      "name": "approve",
      "outputs": [],
      "stateMutability": "nonpayable",
      "type": "function"
    },
    {
      "inputs": [
        {
          "internalType": "address",
          "name": "owner",
          "type": "address"
        }
      ],
      "name": "balanceOf",
      "outputs": [
        {
          "internalType": "uint256",
          "name": "",
          "type": "uint256"
        }
      ],
      "stateMutability": "view",
      "type": "function"
    },
    {
      "inputs": [
        {
          "internalType": "uint256",
          "name": "tokenId",
          "type": "uint256"
        }
      ],
      "name": "getApproved",
      "outputs": [
        {
          "internalType": "address",
          "name": "",
          "type": "address"
        }
      ],
      "stateMutability": "view",
      "type": "function"
    },
    {
      "inputs": [
        {
          "internalType": "address",
          "name": "owner",
          "type": "address"
        },
        {
          "internalType": "address",
          "name": "operator",
          "type": "address"
        }
      ],
      "name": "isApprovedForAll",
      "outputs": [
        {
          "internalType": "bool",
          "name": "",
          "type": "bool"
        }
      ],
      "stateMutability": "view",
      "type": "function"
    },
    {
      "inputs": [
        {
          "internalType": "string",
          "name": "imageURI",
          "type": "string"
        },
        {
          "internalType": "bytes",
          "name": "signature",
          "type": "bytes"
        }
      ],
      "name": "mint",
      "outputs": [],
      "stateMutability": "payable",
      "type": "function"
    },
    {
      "inputs": [],
      "name": "name",
      "outputs": [
        {
          "internalType": "string",
          "name": "",
          "type": "string"
        }
      ],
      "stateMutability": "view",
      "type": "function"
    },
    {
      "inputs": [
        {
          "internalType": "address",
          "name": "owner",
          "type": "address"
        }
      ],
      "name": "numberMinted",
      "outputs": [
        {
          "internalType": "uint256",
          "name": "",
          "type": "uint256"
        }
      ],
      "stateMutability": "view",
      "type": "function"
    },
    {
      "inputs": [],
      "name": "owner",
      "outputs": [
        {
          "internalType": "address",
          "name": "",
          "type": "address"
        }
      ],
      "stateMutability": "view",
      "type": "function"
    },
    {
      "inputs": [
        {
          "internalType": "uint256",
          "name": "tokenId",
          "type": "uint256"
        }
      ],
      "name": "ownerOf",
      "outputs": [
        {
          "internalType": "address",
          "name": "",
          "type": "address"
        }
      ],
      "stateMutability": "view",
      "type": "function"
    },
    {
      "inputs": [],
      "name": "price",
      "outputs": [
        {
          "internalType": "uint256",
          "name": "",
          "type": "uint256"
        }
      ],
      "stateMutability": "view",
      "type": "function"
    },
    {
      "inputs": [],
      "name": "renounceOwnership",
      "outputs": [],
      "stateMutability": "nonpayable",
      "type": "function"
    },
    {
      "inputs": [
        {
          "internalType": "address",
          "name": "from",
          "type": "address"
        },
        {
          "internalType": "address",
          "name": "to",
          "type": "address"
        },
        {
          "internalType": "uint256",
          "name": "tokenId",
          "type": "uint256"
        }
      ],
      "name": "safeTransferFrom",
      "outputs": [],
      "stateMutability": "nonpayable",
      "type": "function"
    },
    {
      "inputs": [
        {
          "internalType": "address",
          "name": "from",
          "type": "address"
        },
        {
          "internalType": "address",
          "name": "to",
          "type": "address"
        },
        {
          "internalType": "uint256",
          "name": "tokenId",
          "type": "uint256"
        },
        {
          "internalType": "bytes",
          "name": "_data",
          "type": "bytes"
        }
      ],
      "name": "safeTransferFrom",
      "outputs": [],
      "stateMutability": "nonpayable",
      "type": "function"
    },
    {
      "inputs": [
        {
          "internalType": "address",
          "name": "operator",
          "type": "address"
        },
        {
          "internalType": "bool",
          "name": "approved",
          "type": "bool"
        }
      ],
      "name": "setApprovalForAll",
      "outputs": [],
      "stateMutability": "nonpayable",
      "type": "function"
    },
    {
      "inputs": [
        {
          "internalType": "uint256",
          "name": "_price",
          "type": "uint256"
        }
      ],
      "name": "setPrice",
      "outputs": [],
      "stateMutability": "nonpayable",
      "type": "function"
    },
    {
      "inputs": [
        {
          "internalType": "address",
          "name": "signer",
          "type": "address"
        }
      ],
      "name": "setSigner",
      "outputs": [],
      "stateMutability": "nonpayable",
      "type": "function"
    },
    {
      "inputs": [
        {
          "internalType": "enum Web3text.Status",
          "name": "_status",
          "type": "uint8"
        }
      ],
      "name": "setStatus",
      "outputs": [],
      "stateMutability": "nonpayable",
      "type": "function"
    },
    {
      "inputs": [],
      "name": "status",
      "outputs": [
        {
          "internalType": "enum Web3text.Status",
          "name": "",
          "type": "uint8"
        }
      ],
      "stateMutability": "view",
      "type": "function"
    },
    {
      "inputs": [
        {
          "internalType": "bytes4",
          "name": "interfaceId",
          "type": "bytes4"
        }
      ],
      "name": "supportsInterface",
      "outputs": [
        {
          "internalType": "bool",
          "name": "",
          "type": "bool"
        }
      ],
      "stateMutability": "view",
      "type": "function"
    },
    {
      "inputs": [],
      "name": "symbol",
      "outputs": [
        {
          "internalType": "string",
          "name": "",
          "type": "string"
        }
      ],
      "stateMutability": "view",
      "type": "function"
    },
    {
      "inputs": [
        {
          "internalType": "uint256",
          "name": "",
          "type": "uint256"
        }
      ],
      "name": "tokenImageURIs",
      "outputs": [
        {
          "internalType": "string",
          "name": "",
          "type": "string"
        }
      ],
      "stateMutability": "view",
      "type": "function"
    },
    {
      "inputs": [
        {
          "internalType": "uint256",
          "name": "tokenId",
          "type": "uint256"
        }
      ],
      "name": "tokenURI",
      "outputs": [
        {
          "internalType": "string",
          "name": "",
          "type": "string"
        }
      ],
      "stateMutability": "view",
      "type": "function"
    },
    {
      "inputs": [],
      "name": "totalSupply",
      "outputs": [
        {
          "internalType": "uint256",
          "name": "",
          "type": "uint256"
        }
      ],
      "stateMutability": "view",
      "type": "function"
    },
    {
      "inputs": [
        {
          "internalType": "address",
          "name": "from",
          "type": "address"
        },
        {
          "internalType": "address",
          "name": "to",
          "type": "address"
        },
        {
          "internalType": "uint256",
          "name": "tokenId",
          "type": "uint256"
        }
      ],
      "name": "transferFrom",
      "outputs": [],
      "stateMutability": "nonpayable",
      "type": "function"
    },
    {
      "inputs": [
        {
          "internalType": "address",
          "name": "newOwner",
          "type": "address"
        }
      ],
      "name": "transferOwnership",
      "outputs": [],
      "stateMutability": "nonpayable",
      "type": "function"
    },
    {
      "inputs": [
        {
          "internalType": "address payable",
          "name": "recipient",
          "type": "address"
        }
      ],
      "name": "withdraw",
      "outputs": [],
      "stateMutability": "nonpayable",
      "type": "function"
    }
  ],
  "bytecode": "0x60806040526000600a553480156200001657600080fd5b50604051620049963803806200499683398181016040528101906200003c919062000347565b6040518060400160405280600881526020017f57656233746578740000000000000000000000000000000000000000000000008152506040518060400160405280600881526020017f57454233544558540000000000000000000000000000000000000000000000008152508160029080519060200190620000c09291906200022d565b508060039080519060200190620000d99291906200022d565b50620000ea6200015a60201b60201c565b600081905550505062000112620001066200015f60201b60201c565b6200016760201b60201c565b80600960006101000a81548173ffffffffffffffffffffffffffffffffffffffff021916908373ffffffffffffffffffffffffffffffffffffffff16021790555050620003dd565b600090565b600033905090565b6000600860009054906101000a900473ffffffffffffffffffffffffffffffffffffffff16905081600860006101000a81548173ffffffffffffffffffffffffffffffffffffffff021916908373ffffffffffffffffffffffffffffffffffffffff1602179055508173ffffffffffffffffffffffffffffffffffffffff168173ffffffffffffffffffffffffffffffffffffffff167f8be0079c531659141344cd1fd0a4f28419497f9722a3daafe3b4186f6b6457e060405160405180910390a35050565b8280546200023b90620003a8565b90600052602060002090601f0160209004810192826200025f5760008555620002ab565b82601f106200027a57805160ff1916838001178555620002ab565b82800160010185558215620002ab579182015b82811115620002aa5782518255916020019190600101906200028d565b5b509050620002ba9190620002be565b5090565b5b80821115620002d9576000816000905550600101620002bf565b5090565b600080fd5b600073ffffffffffffffffffffffffffffffffffffffff82169050919050565b60006200030f82620002e2565b9050919050565b620003218162000302565b81146200032d57600080fd5b50565b600081519050620003418162000316565b92915050565b60006020828403121562000360576200035f620002dd565b5b6000620003708482850162000330565b91505092915050565b7f4e487b7100000000000000000000000000000000000000000000000000000000600052602260045260246000fd5b60006002820490506001821680620003c157607f821691505b602082108103620003d757620003d662000379565b5b50919050565b6145a980620003ed6000396000f3fe6080604052600436106101815760003560e01c806370a08231116100d1578063a22cb4651161008a578063dc33e68111610064578063dc33e6811461055d578063e51f6ba61461059a578063e985e9c5146105d7578063f2fde38b1461061457610181565b8063a22cb465146104ce578063b88d4fde146104f7578063c87b56dd1461052057610181565b806370a08231146103d0578063715018a61461040d5780638da5cb5b1461042457806391b7f5ed1461044f57806395d89b4114610478578063a035b1fe146104a357610181565b806323b872dd1161013e5780634737576e116101185780634737576e1461032557806351cff8d9146103415780636352211e1461036a5780636c19e783146103a757610181565b806323b872dd146102aa5780632e49d78b146102d357806342842e0e146102fc57610181565b806301ffc9a71461018657806306fdde03146101c3578063081812fc146101ee578063095ea7b31461022b57806318160ddd14610254578063200d2ed21461027f575b600080fd5b34801561019257600080fd5b506101ad60048036038101906101a891906130a4565b61063d565b6040516101ba91906130ec565b60405180910390f35b3480156101cf57600080fd5b506101d861071f565b6040516101e591906131a0565b60405180910390f35b3480156101fa57600080fd5b50610215600480360381019061021091906131f8565b6107b1565b6040516102229190613266565b60405180910390f35b34801561023757600080fd5b50610252600480360381019061024d91906132ad565b61082d565b005b34801561026057600080fd5b50610269610937565b60405161027691906132fc565b60405180910390f35b34801561028b57600080fd5b5061029461094e565b6040516102a1919061338e565b60405180910390f35b3480156102b657600080fd5b506102d160048036038101906102cc91906133a9565b610961565b005b3480156102df57600080fd5b506102fa60048036038101906102f59190613421565b610971565b005b34801561030857600080fd5b50610323600480360381019061031e91906133a9565b610a60565b005b61033f600480360381019061033a9190613509565b610a80565b005b34801561034d57600080fd5b50610368600480360381019061036391906135c8565b610cbb565b005b34801561037657600080fd5b50610391600480360381019061038c91906131f8565b610ded565b60405161039e9190613266565b60405180910390f35b3480156103b357600080fd5b506103ce60048036038101906103c991906135f5565b610e03565b005b3480156103dc57600080fd5b506103f760048036038101906103f291906135f5565b610efa565b60405161040491906132fc565b60405180910390f35b34801561041957600080fd5b50610422610fc9565b005b34801561043057600080fd5b50610439611051565b6040516104469190613266565b60405180910390f35b34801561045b57600080fd5b50610476600480360381019061047191906131f8565b61107b565b005b34801561048457600080fd5b5061048d611138565b60405161049a91906131a0565b60405180910390f35b3480156104af57600080fd5b506104b86111ca565b6040516104c591906132fc565b60405180910390f35b3480156104da57600080fd5b506104f560048036038101906104f0919061364e565b6111d0565b005b34801561050357600080fd5b5061051e600480360381019061051991906137be565b611347565b005b34801561052c57600080fd5b50610547600480360381019061054291906131f8565b6113c3565b60405161055491906131a0565b60405180910390f35b34801561056957600080fd5b50610584600480360381019061057f91906135f5565b6114e6565b60405161059191906132fc565b60405180910390f35b3480156105a657600080fd5b506105c160048036038101906105bc91906131f8565b6114f8565b6040516105ce91906131a0565b60405180910390f35b3480156105e357600080fd5b506105fe60048036038101906105f99190613841565b611598565b60405161060b91906130ec565b60405180910390f35b34801561062057600080fd5b5061063b600480360381019061063691906135f5565b61162c565b005b60007f80ac58cd000000000000000000000000000000000000000000000000000000007bffffffffffffffffffffffffffffffffffffffffffffffffffffffff1916827bffffffffffffffffffffffffffffffffffffffffffffffffffffffff1916148061070857507f5b5e139f000000000000000000000000000000000000000000000000000000007bffffffffffffffffffffffffffffffffffffffffffffffffffffffff1916827bffffffffffffffffffffffffffffffffffffffffffffffffffffffff1916145b80610718575061071782611723565b5b9050919050565b60606002805461072e906138b0565b80601f016020809104026020016040519081016040528092919081815260200182805461075a906138b0565b80156107a75780601f1061077c576101008083540402835291602001916107a7565b820191906000526020600020905b81548152906001019060200180831161078a57829003601f168201915b5050505050905090565b60006107bc8261178d565b6107f2576040517fcf4700e400000000000000000000000000000000000000000000000000000000815260040160405180910390fd5b6006600083815260200190815260200160002060009054906101000a900473ffffffffffffffffffffffffffffffffffffffff169050919050565b600061083882610ded565b90508073ffffffffffffffffffffffffffffffffffffffff168373ffffffffffffffffffffffffffffffffffffffff160361089f576040517f943f7b8c00000000000000000000000000000000000000000000000000000000815260040160405180910390fd5b8073ffffffffffffffffffffffffffffffffffffffff166108be6117db565b73ffffffffffffffffffffffffffffffffffffffff16141580156108f057506108ee816108e96117db565b611598565b155b15610927576040517fcfb3b94200000000000000000000000000000000000000000000000000000000815260040160405180910390fd5b6109328383836117e3565b505050565b6000610941611895565b6001546000540303905090565b600860149054906101000a900460ff1681565b61096c83838361189a565b505050565b6109796117db565b73ffffffffffffffffffffffffffffffffffffffff16610997611051565b73ffffffffffffffffffffffffffffffffffffffff16146109ed576040517f08c379a00000000000000000000000000000000000000000000000000000000081526004016109e49061392d565b60405180910390fd5b80600860146101000a81548160ff02191690836001811115610a1257610a11613317565b5b02179055507fafa725e7f44cadb687a7043853fa1a7e7b8f0da74ce87ec546e9420f04da8c1e600860149054906101000a900460ff16604051610a55919061338e565b60405180910390a150565b610a7b83838360405180602001604052806000815250611347565b505050565b600180811115610a9357610a92613317565b5b600860149054906101000a900460ff166001811115610ab557610ab4613317565b5b14610af5576040517f08c379a0000000000000000000000000000000000000000000000000000000008152600401610aec906139bf565b60405180910390fd5b3373ffffffffffffffffffffffffffffffffffffffff163273ffffffffffffffffffffffffffffffffffffffff1614610b63576040517f08c379a0000000000000000000000000000000000000000000000000000000008152600401610b5a90613a51565b60405180910390fd5b610bfd610bb385858080601f016020809104026020016040519081016040528093929190818152602001838380828437600081840152601f19601f82011690508083019250505050505050611d89565b83838080601f016020809104026020016040519081016040528093929190818152602001838380828437600081840152601f19601f82011690508083019250505050505050611db9565b610c3c576040517f08c379a0000000000000000000000000000000000000000000000000000000008152600401610c3390613abd565b60405180910390fd5b600080549050610c4d336001611e1d565b8484600b60008481526020019081526020016000209190610c6f929190612f52565b50610c7b600a54611e3b565b7f30385c845b448a36257a6a1716e6ad2e1bc2cbe333cde1e69fe849ad6511adfe3382604051610cac929190613add565b60405180910390a15050505050565b610cc36117db565b73ffffffffffffffffffffffffffffffffffffffff16610ce1611051565b73ffffffffffffffffffffffffffffffffffffffff1614610d37576040517f08c379a0000000000000000000000000000000000000000000000000000000008152600401610d2e9061392d565b60405180910390fd5b600047905060008273ffffffffffffffffffffffffffffffffffffffff1682604051610d6290613b37565b60006040518083038185875af1925050503d8060008114610d9f576040519150601f19603f3d011682016040523d82523d6000602084013e610da4565b606091505b5050905080610de8576040517f08c379a0000000000000000000000000000000000000000000000000000000008152600401610ddf90613b98565b60405180910390fd5b505050565b6000610df882611edc565b600001519050919050565b610e0b6117db565b73ffffffffffffffffffffffffffffffffffffffff16610e29611051565b73ffffffffffffffffffffffffffffffffffffffff1614610e7f576040517f08c379a0000000000000000000000000000000000000000000000000000000008152600401610e769061392d565b60405180910390fd5b80600960006101000a81548173ffffffffffffffffffffffffffffffffffffffff021916908373ffffffffffffffffffffffffffffffffffffffff1602179055507f5719a5656c5cfdaafa148ecf366fd3b0a7fae06449ce2a46225977fb7417e29d81604051610eef9190613266565b60405180910390a150565b60008073ffffffffffffffffffffffffffffffffffffffff168273ffffffffffffffffffffffffffffffffffffffff1603610f61576040517f8f4eb60400000000000000000000000000000000000000000000000000000000815260040160405180910390fd5b600560008373ffffffffffffffffffffffffffffffffffffffff1673ffffffffffffffffffffffffffffffffffffffff16815260200190815260200160002060000160009054906101000a900467ffffffffffffffff1667ffffffffffffffff169050919050565b610fd16117db565b73ffffffffffffffffffffffffffffffffffffffff16610fef611051565b73ffffffffffffffffffffffffffffffffffffffff1614611045576040517f08c379a000000000000000000000000000000000000000000000000000000000815260040161103c9061392d565b60405180910390fd5b61104f600061216b565b565b6000600860009054906101000a900473ffffffffffffffffffffffffffffffffffffffff16905090565b6110836117db565b73ffffffffffffffffffffffffffffffffffffffff166110a1611051565b73ffffffffffffffffffffffffffffffffffffffff16146110f7576040517f08c379a00000000000000000000000000000000000000000000000000000000081526004016110ee9061392d565b60405180910390fd5b80600a819055507fa6dc15bdb68da224c66db4b3838d9a2b205138e8cff6774e57d0af91e196d6228160405161112d91906132fc565b60405180910390a150565b606060038054611147906138b0565b80601f0160208091040260200160405190810160405280929190818152602001828054611173906138b0565b80156111c05780601f10611195576101008083540402835291602001916111c0565b820191906000526020600020905b8154815290600101906020018083116111a357829003601f168201915b5050505050905090565b600a5481565b6111d86117db565b73ffffffffffffffffffffffffffffffffffffffff168273ffffffffffffffffffffffffffffffffffffffff160361123c576040517fb06307db00000000000000000000000000000000000000000000000000000000815260040160405180910390fd5b80600760006112496117db565b73ffffffffffffffffffffffffffffffffffffffff1673ffffffffffffffffffffffffffffffffffffffff16815260200190815260200160002060008473ffffffffffffffffffffffffffffffffffffffff1673ffffffffffffffffffffffffffffffffffffffff16815260200190815260200160002060006101000a81548160ff0219169083151502179055508173ffffffffffffffffffffffffffffffffffffffff166112f66117db565b73ffffffffffffffffffffffffffffffffffffffff167f17307eab39ab6107e8899845ad3d59bd9653f200f220920489ca2b5937696c318360405161133b91906130ec565b60405180910390a35050565b61135284848461189a565b6113718373ffffffffffffffffffffffffffffffffffffffff16612231565b8015611386575061138484848484612254565b155b156113bd576040517fd1a57ed600000000000000000000000000000000000000000000000000000000815260040160405180910390fd5b50505050565b60606000600b600084815260200190815260200160002080546113e5906138b0565b80601f0160208091040260200160405190810160405280929190818152602001828054611411906138b0565b801561145e5780601f106114335761010080835404028352916020019161145e565b820191906000526020600020905b81548152906001019060200180831161144157829003601f168201915b50505050509050600081510361148657604051806020016040528060008152509150506114e1565b60006114ba611494856123a4565b836040516020016114a6929190613d70565b604051602081830303815290604052612504565b9050806040516020016114cd9190613e0c565b604051602081830303815290604052925050505b919050565b60006114f182612667565b9050919050565b600b6020528060005260406000206000915090508054611517906138b0565b80601f0160208091040260200160405190810160405280929190818152602001828054611543906138b0565b80156115905780601f1061156557610100808354040283529160200191611590565b820191906000526020600020905b81548152906001019060200180831161157357829003601f168201915b505050505081565b6000600760008473ffffffffffffffffffffffffffffffffffffffff1673ffffffffffffffffffffffffffffffffffffffff16815260200190815260200160002060008373ffffffffffffffffffffffffffffffffffffffff1673ffffffffffffffffffffffffffffffffffffffff16815260200190815260200160002060009054906101000a900460ff16905092915050565b6116346117db565b73ffffffffffffffffffffffffffffffffffffffff16611652611051565b73ffffffffffffffffffffffffffffffffffffffff16146116a8576040517f08c379a000000000000000000000000000000000000000000000000000000000815260040161169f9061392d565b60405180910390fd5b600073ffffffffffffffffffffffffffffffffffffffff168173ffffffffffffffffffffffffffffffffffffffff1603611717576040517f08c379a000000000000000000000000000000000000000000000000000000000815260040161170e90613ea0565b60405180910390fd5b6117208161216b565b50565b60007f01ffc9a7000000000000000000000000000000000000000000000000000000007bffffffffffffffffffffffffffffffffffffffffffffffffffffffff1916827bffffffffffffffffffffffffffffffffffffffffffffffffffffffff1916149050919050565b600081611798611895565b111580156117a7575060005482105b80156117d4575060046000838152602001908152602001600020600001601c9054906101000a900460ff16155b9050919050565b600033905090565b826006600084815260200190815260200160002060006101000a81548173ffffffffffffffffffffffffffffffffffffffff021916908373ffffffffffffffffffffffffffffffffffffffff160217905550818373ffffffffffffffffffffffffffffffffffffffff168273ffffffffffffffffffffffffffffffffffffffff167f8c5be1e5ebec7d5bd14f71427d1e84f3dd0314c0f7b2291e5b200ac8c7c3b92560405160405180910390a4505050565b600090565b60006118a582611edc565b90506000816000015173ffffffffffffffffffffffffffffffffffffffff166118cc6117db565b73ffffffffffffffffffffffffffffffffffffffff1614806118ff57506118fe82600001516118f96117db565b611598565b5b80611944575061190d6117db565b73ffffffffffffffffffffffffffffffffffffffff1661192c846107b1565b73ffffffffffffffffffffffffffffffffffffffff16145b90508061197d576040517f59c896be00000000000000000000000000000000000000000000000000000000815260040160405180910390fd5b8473ffffffffffffffffffffffffffffffffffffffff16826000015173ffffffffffffffffffffffffffffffffffffffff16146119e6576040517fa114810000000000000000000000000000000000000000000000000000000000815260040160405180910390fd5b600073ffffffffffffffffffffffffffffffffffffffff168473ffffffffffffffffffffffffffffffffffffffff1603611a4c576040517fea553b3400000000000000000000000000000000000000000000000000000000815260040160405180910390fd5b611a598585856001612736565b611a6960008484600001516117e3565b6001600560008773ffffffffffffffffffffffffffffffffffffffff1673ffffffffffffffffffffffffffffffffffffffff16815260200190815260200160002060000160008282829054906101000a900467ffffffffffffffff160392506101000a81548167ffffffffffffffff021916908367ffffffffffffffff1602179055506001600560008673ffffffffffffffffffffffffffffffffffffffff1673ffffffffffffffffffffffffffffffffffffffff16815260200190815260200160002060000160008282829054906101000a900467ffffffffffffffff160192506101000a81548167ffffffffffffffff021916908367ffffffffffffffff160217905550836004600085815260200190815260200160002060000160006101000a81548173ffffffffffffffffffffffffffffffffffffffff021916908373ffffffffffffffffffffffffffffffffffffffff160217905550426004600085815260200190815260200160002060000160146101000a81548167ffffffffffffffff021916908367ffffffffffffffff1602179055506000600184019050600073ffffffffffffffffffffffffffffffffffffffff166004600083815260200190815260200160002060000160009054906101000a900473ffffffffffffffffffffffffffffffffffffffff1673ffffffffffffffffffffffffffffffffffffffff1603611d1957600054811015611d185782600001516004600083815260200190815260200160002060000160006101000a81548173ffffffffffffffffffffffffffffffffffffffff021916908373ffffffffffffffffffffffffffffffffffffffff16021790555082602001516004600083815260200190815260200160002060000160146101000a81548167ffffffffffffffff021916908367ffffffffffffffff1602179055505b5b50828473ffffffffffffffffffffffffffffffffffffffff168673ffffffffffffffffffffffffffffffffffffffff167fddf252ad1be2c89b69c2b068fc378daa952ba7f163c4a11628f55a4df523b3ef60405160405180910390a4611d82858585600161273c565b5050505050565b600081604051602001611d9c91906131a0565b604051602081830303815290604052805190602001209050919050565b6000600960009054906101000a900473ffffffffffffffffffffffffffffffffffffffff1673ffffffffffffffffffffffffffffffffffffffff16611dfe8484612742565b73ffffffffffffffffffffffffffffffffffffffff1614905092915050565b611e37828260405180602001604052806000815250612767565b5050565b80341015611e7e576040517f08c379a0000000000000000000000000000000000000000000000000000000008152600401611e7590613f0c565b60405180910390fd5b80341115611ed9573373ffffffffffffffffffffffffffffffffffffffff166108fc8234611eac9190613f5b565b9081150290604051600060405180830381858888f19350505050158015611ed7573d6000803e3d6000fd5b505b50565b611ee4612fd8565b600082905080611ef2611895565b11158015611f01575060005481105b15612134576000600460008381526020019081526020016000206040518060600160405290816000820160009054906101000a900473ffffffffffffffffffffffffffffffffffffffff1673ffffffffffffffffffffffffffffffffffffffff1673ffffffffffffffffffffffffffffffffffffffff1681526020016000820160149054906101000a900467ffffffffffffffff1667ffffffffffffffff1667ffffffffffffffff16815260200160008201601c9054906101000a900460ff1615151515815250509050806040015161213257600073ffffffffffffffffffffffffffffffffffffffff16816000015173ffffffffffffffffffffffffffffffffffffffff1614612016578092505050612166565b5b60011561213157818060019003925050600460008381526020019081526020016000206040518060600160405290816000820160009054906101000a900473ffffffffffffffffffffffffffffffffffffffff1673ffffffffffffffffffffffffffffffffffffffff1673ffffffffffffffffffffffffffffffffffffffff1681526020016000820160149054906101000a900467ffffffffffffffff1667ffffffffffffffff1667ffffffffffffffff16815260200160008201601c9054906101000a900460ff1615151515815250509050600073ffffffffffffffffffffffffffffffffffffffff16816000015173ffffffffffffffffffffffffffffffffffffffff161461212c578092505050612166565b612017565b5b505b6040517fdf2d9b4200000000000000000000000000000000000000000000000000000000815260040160405180910390fd5b919050565b6000600860009054906101000a900473ffffffffffffffffffffffffffffffffffffffff16905081600860006101000a81548173ffffffffffffffffffffffffffffffffffffffff021916908373ffffffffffffffffffffffffffffffffffffffff1602179055508173ffffffffffffffffffffffffffffffffffffffff168173ffffffffffffffffffffffffffffffffffffffff167f8be0079c531659141344cd1fd0a4f28419497f9722a3daafe3b4186f6b6457e060405160405180910390a35050565b6000808273ffffffffffffffffffffffffffffffffffffffff163b119050919050565b60008373ffffffffffffffffffffffffffffffffffffffff1663150b7a0261227a6117db565b8786866040518563ffffffff1660e01b815260040161229c9493929190613fe4565b6020604051808303816000875af19250505080156122d857506040513d601f19601f820116820180604052508101906122d59190614045565b60015b612351573d8060008114612308576040519150601f19603f3d011682016040523d82523d6000602084013e61230d565b606091505b506000815103612349576040517fd1a57ed600000000000000000000000000000000000000000000000000000000815260040160405180910390fd5b805181602001fd5b63150b7a0260e01b7bffffffffffffffffffffffffffffffffffffffffffffffffffffffff1916817bffffffffffffffffffffffffffffffffffffffffffffffffffffffff191614915050949350505050565b6060600082036123eb576040518060400160405280600181526020017f300000000000000000000000000000000000000000000000000000000000000081525090506124ff565b600082905060005b6000821461241d57808061240690614072565b915050600a8261241691906140e9565b91506123f3565b60008167ffffffffffffffff81111561243957612438613693565b5b6040519080825280601f01601f19166020018201604052801561246b5781602001600182028036833780820191505090505b5090505b600085146124f8576001826124849190613f5b565b9150600a85612493919061411a565b603061249f919061414b565b60f81b8183815181106124b5576124b46141a1565b5b60200101907effffffffffffffffffffffffffffffffffffffffffffffffffffffffffffff1916908160001a905350600a856124f191906140e9565b945061246f565b8093505050505b919050565b6060600082510361252657604051806020016040528060008152509050612662565b60006040518060600160405280604081526020016145346040913990506000600360028551612555919061414b565b61255f91906140e9565b600461256b91906141d0565b67ffffffffffffffff81111561258457612583613693565b5b6040519080825280601f01601f1916602001820160405280156125b65781602001600182028036833780820191505090505b509050600182016020820185865187015b80821015612622576003820191508151603f8160121c168501518453600184019350603f81600c1c168501518453600184019350603f8160061c168501518453600184019350603f81168501518453600184019350506125c7565b505060038651066001811461263e576002811461265157612659565b603d6001830353603d6002830353612659565b603d60018303535b50505080925050505b919050565b60008073ffffffffffffffffffffffffffffffffffffffff168273ffffffffffffffffffffffffffffffffffffffff16036126ce576040517f35ebb31900000000000000000000000000000000000000000000000000000000815260040160405180910390fd5b600560008373ffffffffffffffffffffffffffffffffffffffff1673ffffffffffffffffffffffffffffffffffffffff16815260200190815260200160002060000160089054906101000a900467ffffffffffffffff1667ffffffffffffffff169050919050565b50505050565b50505050565b600061275f8261275185612779565b6127a990919063ffffffff16565b905092915050565b61277483838360016127d0565b505050565b60008160405160200161278c91906142a1565b604051602081830303815290604052805190602001209050919050565b60008060006127b88585612b9a565b915091506127c581612c1b565b819250505092915050565b600080549050600073ffffffffffffffffffffffffffffffffffffffff168573ffffffffffffffffffffffffffffffffffffffff160361283c576040517f2e07630000000000000000000000000000000000000000000000000000000000815260040160405180910390fd5b60008403612876576040517fb562e8dd00000000000000000000000000000000000000000000000000000000815260040160405180910390fd5b6128836000868387612736565b83600560008773ffffffffffffffffffffffffffffffffffffffff1673ffffffffffffffffffffffffffffffffffffffff16815260200190815260200160002060000160008282829054906101000a900467ffffffffffffffff160192506101000a81548167ffffffffffffffff021916908367ffffffffffffffff16021790555083600560008773ffffffffffffffffffffffffffffffffffffffff1673ffffffffffffffffffffffffffffffffffffffff16815260200190815260200160002060000160088282829054906101000a900467ffffffffffffffff160192506101000a81548167ffffffffffffffff021916908367ffffffffffffffff160217905550846004600083815260200190815260200160002060000160006101000a81548173ffffffffffffffffffffffffffffffffffffffff021916908373ffffffffffffffffffffffffffffffffffffffff160217905550426004600083815260200190815260200160002060000160146101000a81548167ffffffffffffffff021916908367ffffffffffffffff160217905550600081905060008582019050838015612a4d5750612a4c8773ffffffffffffffffffffffffffffffffffffffff16612231565b5b15612b12575b818773ffffffffffffffffffffffffffffffffffffffff16600073ffffffffffffffffffffffffffffffffffffffff167fddf252ad1be2c89b69c2b068fc378daa952ba7f163c4a11628f55a4df523b3ef60405160405180910390a4612ac26000888480600101955088612254565b612af8576040517fd1a57ed600000000000000000000000000000000000000000000000000000000815260040160405180910390fd5b808203612a53578260005414612b0d57600080fd5b612b7d565b5b818060010192508773ffffffffffffffffffffffffffffffffffffffff16600073ffffffffffffffffffffffffffffffffffffffff167fddf252ad1be2c89b69c2b068fc378daa952ba7f163c4a11628f55a4df523b3ef60405160405180910390a4808203612b13575b816000819055505050612b93600086838761273c565b5050505050565b6000806041835103612bdb5760008060006020860151925060408601519150606086015160001a9050612bcf87828585612de7565b94509450505050612c14565b6040835103612c0b576000806020850151915060408501519050612c00868383612ef3565b935093505050612c14565b60006002915091505b9250929050565b60006004811115612c2f57612c2e613317565b5b816004811115612c4257612c41613317565b5b0315612de45760016004811115612c5c57612c5b613317565b5b816004811115612c6f57612c6e613317565b5b03612caf576040517f08c379a0000000000000000000000000000000000000000000000000000000008152600401612ca690614313565b60405180910390fd5b60026004811115612cc357612cc2613317565b5b816004811115612cd657612cd5613317565b5b03612d16576040517f08c379a0000000000000000000000000000000000000000000000000000000008152600401612d0d9061437f565b60405180910390fd5b60036004811115612d2a57612d29613317565b5b816004811115612d3d57612d3c613317565b5b03612d7d576040517f08c379a0000000000000000000000000000000000000000000000000000000008152600401612d7490614411565b60405180910390fd5b600480811115612d9057612d8f613317565b5b816004811115612da357612da2613317565b5b03612de3576040517f08c379a0000000000000000000000000000000000000000000000000000000008152600401612dda906144a3565b60405180910390fd5b5b50565b6000807f7fffffffffffffffffffffffffffffff5d576e7357a4501ddfe92f46681b20a08360001c1115612e22576000600391509150612eea565b601b8560ff1614158015612e3a5750601c8560ff1614155b15612e4c576000600491509150612eea565b600060018787878760405160008152602001604052604051612e7194939291906144ee565b6020604051602081039080840390855afa158015612e93573d6000803e3d6000fd5b505050602060405103519050600073ffffffffffffffffffffffffffffffffffffffff168173ffffffffffffffffffffffffffffffffffffffff1603612ee157600060019250925050612eea565b80600092509250505b94509492505050565b60008060007f7fffffffffffffffffffffffffffffffffffffffffffffffffffffffffffffff60001b841690506000601b60ff8660001c901c612f36919061414b565b9050612f4487828885612de7565b935093505050935093915050565b828054612f5e906138b0565b90600052602060002090601f016020900481019282612f805760008555612fc7565b82601f10612f9957803560ff1916838001178555612fc7565b82800160010185558215612fc7579182015b82811115612fc6578235825591602001919060010190612fab565b5b509050612fd4919061301b565b5090565b6040518060600160405280600073ffffffffffffffffffffffffffffffffffffffff168152602001600067ffffffffffffffff1681526020016000151581525090565b5b8082111561303457600081600090555060010161301c565b5090565b6000604051905090565b600080fd5b600080fd5b60007fffffffff0000000000000000000000000000000000000000000000000000000082169050919050565b6130818161304c565b811461308c57600080fd5b50565b60008135905061309e81613078565b92915050565b6000602082840312156130ba576130b9613042565b5b60006130c88482850161308f565b91505092915050565b60008115159050919050565b6130e6816130d1565b82525050565b600060208201905061310160008301846130dd565b92915050565b600081519050919050565b600082825260208201905092915050565b60005b83811015613141578082015181840152602081019050613126565b83811115613150576000848401525b50505050565b6000601f19601f8301169050919050565b600061317282613107565b61317c8185613112565b935061318c818560208601613123565b61319581613156565b840191505092915050565b600060208201905081810360008301526131ba8184613167565b905092915050565b6000819050919050565b6131d5816131c2565b81146131e057600080fd5b50565b6000813590506131f2816131cc565b92915050565b60006020828403121561320e5761320d613042565b5b600061321c848285016131e3565b91505092915050565b600073ffffffffffffffffffffffffffffffffffffffff82169050919050565b600061325082613225565b9050919050565b61326081613245565b82525050565b600060208201905061327b6000830184613257565b92915050565b61328a81613245565b811461329557600080fd5b50565b6000813590506132a781613281565b92915050565b600080604083850312156132c4576132c3613042565b5b60006132d285828601613298565b92505060206132e3858286016131e3565b9150509250929050565b6132f6816131c2565b82525050565b600060208201905061331160008301846132ed565b92915050565b7f4e487b7100000000000000000000000000000000000000000000000000000000600052602160045260246000fd5b6002811061335757613356613317565b5b50565b600081905061336882613346565b919050565b60006133788261335a565b9050919050565b6133888161336d565b82525050565b60006020820190506133a3600083018461337f565b92915050565b6000806000606084860312156133c2576133c1613042565b5b60006133d086828701613298565b93505060206133e186828701613298565b92505060406133f2868287016131e3565b9150509250925092565b6002811061340957600080fd5b50565b60008135905061341b816133fc565b92915050565b60006020828403121561343757613436613042565b5b60006134458482850161340c565b91505092915050565b600080fd5b600080fd5b600080fd5b60008083601f8401126134735761347261344e565b5b8235905067ffffffffffffffff8111156134905761348f613453565b5b6020830191508360018202830111156134ac576134ab613458565b5b9250929050565b60008083601f8401126134c9576134c861344e565b5b8235905067ffffffffffffffff8111156134e6576134e5613453565b5b60208301915083600182028301111561350257613501613458565b5b9250929050565b6000806000806040858703121561352357613522613042565b5b600085013567ffffffffffffffff81111561354157613540613047565b5b61354d8782880161345d565b9450945050602085013567ffffffffffffffff8111156135705761356f613047565b5b61357c878288016134b3565b925092505092959194509250565b600061359582613225565b9050919050565b6135a58161358a565b81146135b057600080fd5b50565b6000813590506135c28161359c565b92915050565b6000602082840312156135de576135dd613042565b5b60006135ec848285016135b3565b91505092915050565b60006020828403121561360b5761360a613042565b5b600061361984828501613298565b91505092915050565b61362b816130d1565b811461363657600080fd5b50565b60008135905061364881613622565b92915050565b6000806040838503121561366557613664613042565b5b600061367385828601613298565b925050602061368485828601613639565b9150509250929050565b600080fd5b7f4e487b7100000000000000000000000000000000000000000000000000000000600052604160045260246000fd5b6136cb82613156565b810181811067ffffffffffffffff821117156136ea576136e9613693565b5b80604052505050565b60006136fd613038565b905061370982826136c2565b919050565b600067ffffffffffffffff82111561372957613728613693565b5b61373282613156565b9050602081019050919050565b82818337600083830152505050565b600061376161375c8461370e565b6136f3565b90508281526020810184848401111561377d5761377c61368e565b5b61378884828561373f565b509392505050565b600082601f8301126137a5576137a461344e565b5b81356137b584826020860161374e565b91505092915050565b600080600080608085870312156137d8576137d7613042565b5b60006137e687828801613298565b94505060206137f787828801613298565b9350506040613808878288016131e3565b925050606085013567ffffffffffffffff81111561382957613828613047565b5b61383587828801613790565b91505092959194509250565b6000806040838503121561385857613857613042565b5b600061386685828601613298565b925050602061387785828601613298565b9150509250929050565b7f4e487b7100000000000000000000000000000000000000000000000000000000600052602260045260246000fd5b600060028204905060018216806138c857607f821691505b6020821081036138db576138da613881565b5b50919050565b7f4f776e61626c653a2063616c6c6572206973206e6f7420746865206f776e6572600082015250565b6000613917602083613112565b9150613922826138e1565b602082019050919050565b600060208201905081810360008301526139468161390a565b9050919050565b7f57454233544558543a205075626c6963206d696e7420697320756e616374697660008201527f652e000000000000000000000000000000000000000000000000000000000000602082015250565b60006139a9602283613112565b91506139b48261394d565b604082019050919050565b600060208201905081810360008301526139d88161399c565b9050919050565b7f57454233544558543a20636f6e74726163742069736e277420616c6c6f77656460008201527f20746f206d696e742e0000000000000000000000000000000000000000000000602082015250565b6000613a3b602983613112565b9150613a46826139df565b604082019050919050565b60006020820190508181036000830152613a6a81613a2e565b9050919050565b7f57454233544558543a20496e76616c6964207369676e61747572652e00000000600082015250565b6000613aa7601c83613112565b9150613ab282613a71565b602082019050919050565b60006020820190508181036000830152613ad681613a9a565b9050919050565b6000604082019050613af26000830185613257565b613aff60208301846132ed565b9392505050565b600081905092915050565b50565b6000613b21600083613b06565b9150613b2c82613b11565b600082019050919050565b6000613b4282613b14565b9150819050919050565b7f57454233544558543a205472616e73666572206661696c65642e000000000000600082015250565b6000613b82601a83613112565b9150613b8d82613b4c565b602082019050919050565b60006020820190508181036000830152613bb181613b75565b9050919050565b600081905092915050565b7f7b226e616d65223a202257454233544558542023000000000000000000000000600082015250565b6000613bf9601483613bb8565b9150613c0482613bc3565b601482019050919050565b6000613c1a82613107565b613c248185613bb8565b9350613c34818560208601613123565b80840191505092915050565b7f222c226465736372697074696f6e223a2022576562335465787420697320612060008201527f7465787473204e465420456469746f727320696e20576562332e20476574206160208201527f2046524545207465787473204e46542062792077656233746578742e222c0000604082015250565b6000613cc2605e83613bb8565b9150613ccd82613c40565b605e82019050919050565b7f22696d616765223a202200000000000000000000000000000000000000000000600082015250565b6000613d0e600a83613bb8565b9150613d1982613cd8565b600a82019050919050565b7f222c2261747472696275746573223a205b5d7d00000000000000000000000000600082015250565b6000613d5a601383613bb8565b9150613d6582613d24565b601382019050919050565b6000613d7b82613bec565b9150613d878285613c0f565b9150613d9282613cb5565b9150613d9d82613d01565b9150613da98284613c0f565b9150613db482613d4d565b91508190509392505050565b7f646174613a6170706c69636174696f6e2f6a736f6e3b6261736536342c000000600082015250565b6000613df6601d83613bb8565b9150613e0182613dc0565b601d82019050919050565b6000613e1782613de9565b9150613e238284613c0f565b915081905092915050565b7f4f776e61626c653a206e6577206f776e657220697320746865207a65726f206160008201527f6464726573730000000000000000000000000000000000000000000000000000602082015250565b6000613e8a602683613112565b9150613e9582613e2e565b604082019050919050565b60006020820190508181036000830152613eb981613e7d565b9050919050565b7f57454233544558543a20496e76616c69642076616c75652e0000000000000000600082015250565b6000613ef6601883613112565b9150613f0182613ec0565b602082019050919050565b60006020820190508181036000830152613f2581613ee9565b9050919050565b7f4e487b7100000000000000000000000000000000000000000000000000000000600052601160045260246000fd5b6000613f66826131c2565b9150613f71836131c2565b925082821015613f8457613f83613f2c565b5b828203905092915050565b600081519050919050565b600082825260208201905092915050565b6000613fb682613f8f565b613fc08185613f9a565b9350613fd0818560208601613123565b613fd981613156565b840191505092915050565b6000608082019050613ff96000830187613257565b6140066020830186613257565b61401360408301856132ed565b81810360608301526140258184613fab565b905095945050505050565b60008151905061403f81613078565b92915050565b60006020828403121561405b5761405a613042565b5b600061406984828501614030565b91505092915050565b600061407d826131c2565b91507fffffffffffffffffffffffffffffffffffffffffffffffffffffffffffffffff82036140af576140ae613f2c565b5b600182019050919050565b7f4e487b7100000000000000000000000000000000000000000000000000000000600052601260045260246000fd5b60006140f4826131c2565b91506140ff836131c2565b92508261410f5761410e6140ba565b5b828204905092915050565b6000614125826131c2565b9150614130836131c2565b9250826141405761413f6140ba565b5b828206905092915050565b6000614156826131c2565b9150614161836131c2565b9250827fffffffffffffffffffffffffffffffffffffffffffffffffffffffffffffffff0382111561419657614195613f2c565b5b828201905092915050565b7f4e487b7100000000000000000000000000000000000000000000000000000000600052603260045260246000fd5b60006141db826131c2565b91506141e6836131c2565b9250817fffffffffffffffffffffffffffffffffffffffffffffffffffffffffffffffff048311821515161561421f5761421e613f2c565b5b828202905092915050565b7f19457468657265756d205369676e6564204d6573736167653a0a333200000000600082015250565b6000614260601c83613bb8565b915061426b8261422a565b601c82019050919050565b6000819050919050565b6000819050919050565b61429b61429682614276565b614280565b82525050565b60006142ac82614253565b91506142b8828461428a565b60208201915081905092915050565b7f45434453413a20696e76616c6964207369676e61747572650000000000000000600082015250565b60006142fd601883613112565b9150614308826142c7565b602082019050919050565b6000602082019050818103600083015261432c816142f0565b9050919050565b7f45434453413a20696e76616c6964207369676e6174757265206c656e67746800600082015250565b6000614369601f83613112565b915061437482614333565b602082019050919050565b600060208201905081810360008301526143988161435c565b9050919050565b7f45434453413a20696e76616c6964207369676e6174757265202773272076616c60008201527f7565000000000000000000000000000000000000000000000000000000000000602082015250565b60006143fb602283613112565b91506144068261439f565b604082019050919050565b6000602082019050818103600083015261442a816143ee565b9050919050565b7f45434453413a20696e76616c6964207369676e6174757265202776272076616c60008201527f7565000000000000000000000000000000000000000000000000000000000000602082015250565b600061448d602283613112565b915061449882614431565b604082019050919050565b600060208201905081810360008301526144bc81614480565b9050919050565b6144cc81614276565b82525050565b600060ff82169050919050565b6144e8816144d2565b82525050565b600060808201905061450360008301876144c3565b61451060208301866144df565b61451d60408301856144c3565b61452a60608301846144c3565b9594505050505056fe4142434445464748494a4b4c4d4e4f505152535455565758595a6162636465666768696a6b6c6d6e6f707172737475767778797a303132333435363738392b2fa264697066735822122021cd2e321e33000751f3d1fee4fa7d709a8f0b928c5fe9495bc3147ff37c074964736f6c634300080d0033",
  "linkReferences": {},
  "deployedLinkReferences": {}
}